S0120000686561746863617265322E737265633B
S113000045C0000061C000005FC000005DC000008A
S11300105BC0000059C0000057C0000055C000007C
S113002053C0000051C000004FC000004DC000008C
S11300304BC0000049C0000047C0000045C000009C
S11300406DC2000041C000003FC000003DC0000080
S11300503BC0000039C0000037C0000035C00000BC
S113006033C0000031C000002FC000002DC00000CC
S11300702BC0000029C0000027C0000025C00000DC
S113008023C0000021C000001FC0000011241FBEB7
S1130090CFEFD0E1DEBFCDBF12E0A0E0B1E0ECEEE7
S11300A0F5E100E00BBF02C007900D92AA31B10741
S11300B0D9F722E0AAE1B2E001C01D92AA35B20745
S11300C0E1F7A6D30C94F40A9BCF20E030E07BEF59
S11300D06DEF5EEF4AE12115310511F453B909C002
S11300E02130310511F463B904C02230310509F41B
S11300F073B9842F8A95F1F781B190E0809590953A
S1130100807F9927009799F023B12F70AC01422B7F
S11301109A0180915802909159022817390799F051
S11301203093590220935802822F932F08952F5F02
S11301303F4F2330310579F610925902109258023C
S113014080E090E0089580E090E008958823B1F184
S1130150809147028F93809146028F93809145024C
S11301608F93809144028F9380914B028F9380915F
S11301704A028F93809149028F93809148028F9312
S113018080914F028F9380914E028F9380914D0204
S11301908F9380914C028F9381E091E09F938F9392
S11301A084E292E09F938F9344D78DB79EB7409695
S11301B00FB6F8949EBF0FBE8DBF089580912002A4
S11301C090912102009781F5809147028F9380914D
S11301D046028F93809145028F93809144028F93BE
S11301E080914B028F9380914A028F9380914902B0
S11301F08F93809148028F9380914F028F938091C7
S11302004E028F9388E191E09F938F9384E292E072
S11302109F938F930ED78DB79EB70E960FB6F89413
S11302209EBF0FBE8DBF08958130910581F58091E9
S113023047028F93809146028F93809145028F935A
S1130240809144028F9380914B028F9380914A0254
S11302508F93809149028F93809148028F9380916C
S11302604D028F9380914C028F938EE291E09F9385
S11302708F9384E292E09F938F93DBD68DB79EB7E2
S11302800E960FB6F8949EBF0FBE8DBF08958230B0
S1130290910581F5809147028F93809146028F9357
S11302A0809145028F93809144028F9380914B02F9
S11302B08F9380914A028F9380914F028F93809104
S11302C04E028F9380914D028F9380914C028F93B5
S11302D084E491E09F938F9384E292E09F938F93C1
S11302E0A8D68DB79EB70E960FB6F8949EBF0FBED4
S11302F08DBF08958330910581F5809147028F93D6
S1130300809146028F93809145028F93809144029D
S11303108F93809149028F93809148028F938091AB
S11303204F028F9380914E028F9380914D028F9351
S113033080914C028F938AE591E09F938F9384E29E
S113034092E09F938F9375D68DB79EB70E960FB696
S1130350F8949EBF0FBE8DBF08958430910581F53A
S1130360809147028F93809146028F9380914B0234
S11303708F9380914A028F93809149028F93809149
S113038048028F9380914F028F9380914E028F93F6
S113039080914D028F9380914C028F9380E791E07E
S11303A09F938F9384E292E09F938F9342D68DB76D
S11303B09EB70E960FB6F8949EBF0FBE8DBF0895DC
S11303C0059779F5809145028F93809144028F932C
S11303D080914B028F9380914A028F9380914902BE
S11303E08F93809148028F9380914F028F938091D5
S11303F04E028F9380914D028F9380914C028F9384
S113040086E891E09F938F9384E292E09F938F9389
S113041010D68DB79EB70E960FB6F8949EBF0FBE3A
S11304208DBF08958FEF84BB85BB0895982F907F6F
S113043095BBAA9AAA9820E1829FC001112485BB8A
S1130440AA9AAA9880E49FE10197F1F70895982F5A
S1130450907F916095BBAA9AAA9820E1829FC001DF
S11304601124816085BBAA9AAA9880E49FE1019730
S1130470F1F70895662319F0613021F0089580584A
S1130480D5CF08958054D2CF08950F931F93CF935F
S1130490DF93042F152FEEDFC02FD12F8991D7DFE3
S11304A088818111FBCFDF91CF911F910F91089526
S11304B0B9DF80ED97E020E931E0F9013197F1F7F8
S11304C00197D9F780E699E00197F1F788E2AEDF6A
S11304D080ED97E020E931E0F9013197F1F70197D8
S11304E0D9F788E2A3DF80ED97E020E931E0F90154
S11304F03197F1F70197D9F78CE098DF86E096DF22
S113050082E094DF81E092DF81E090CF089581E082
S11305108DDF80E49CE90197F1F708951F920F9213
S11305200FB60F9211240BB60F922F933F934F9354
S11305305F936F937F938F939F93AF93BF93EF9347
S1130540FF9320915402309155022F5F3F4F309317
S113055055022093540280915202909153020196C5
S1130560909353028093520240912302442351F00A
S113057040915602509157024F5F5F4F509357027C
S11305804093560260912202662351F0409150023A
S1130590509151024F5F5F4F50935102409350026C
S11305A040914C0250914D024230510518F1E091B6
S11305B04E02F0914F023497E8F0109257021092D5
S11305C0560210924702109246021092450210926F
S11305D0440210924B0210924A0210924902109265
S11305E0480210924F0210924E0210924D02109245
S11305F04C0225C0E0914E02F0914F023A9750F020
S11306004F5F5F4F50934D0240934C0210924F0244
S113061010924E02409148025091490246305105D1
S113062070F040914E0250914F024F5F5F4F5093D4
S11306304F0240934E021092490210924802409198
S11306404A0250914B024A30510570F040914802E1
S1130650509149024F5F5F4F5093490240934802C3
S113066010924B0210924A0240914402509145026A
S11306704630510570F040914A0250914B024F5F51
S11306805F4F50934B0240934A02109245021092DE
S1130690440240914602509147024A30510570F09D
S11306A040914402509145024F5F5F4F5093450281
S11306B0409344021092470210924602409156021F
S11306C050915702483E534070F040914602509179
S11306D047024F5F5F4F5093470240934602109288
S11306E0570210925602243F314050F030910001DD
S11306F021E0232720930001109255021092540206
S11307008536910520F0109253021092520266230E
S113071089F180911E0290911F020F97B4F020E09E
S113072030E04CE053E460911A0270911B02809116
S11307301C0290911D02F9D260931A0270931B025D
S113074080931C0290931D0215C020E030E042ED1E
S113075052E460911A0270911B0280911C029091E4
S11307601D02E3D260931A0270931B0280931C0251
S113077090931D02FF91EF91BF91AF919F918F9143
S11307807F916F915F914F913F912F910F900BBE8D
S11307900F900FBE0F901F9018954CE951E060E048
S11307A080E073DE4AEA51E061E080E06EDE12BA76
S11307B080E288BB88E893E120E931E0F9013197D0
S11307C0F1F70197D9F7A3DE8FEF82BB88E893E1B5
S11307D020E931E0F9013197F1F70197D9F74CE9B4
S11307E051E060E080E051DE4AEA51E061E080E0FF
S11307F04CDE12BA88E893E120E931E0F90131973F
S1130800F1F70197D9F783DE8FEF82BB88BB089598
S113081086E082BF81E087BF84E083BF7894CFEF16
S1130820C1BBC2BB45DE73DE8FE082B9C3B987EEBC
S113083086B917B8C7BBC8BBB0DF0F2EF1E06F2E67
S1130840F1E07F2EF02D0F2EFDE72F2E312CF02D11
S11308500F2EFDED4F2EF1E05F2EF02DC4E3D2E01C
S113086034DC8C014BEB51E060E080E00EDE8091E3
S113087000016CDC44E252E061E080E006DE0E340C
S1130880110509F08BC080912002909121020097FC
S113089071F480914C0290914D0201968330910540
S11308A009F03DC210924D0210924C02D9CF813012
S11308B0910501F580914E0290914F02019690931B
S11308C04F0280934E0220914C0230914D0222300F
S11308D0310541F48430910529F410924F021092AD
S11308E04E02BECF0A9709F0BBCF10924F0210926E
S11308F04E02B6CF8230910591F4809148029091D6
S1130900490201968630910529F09093490280931B
S11309104802A6CF1092490210924802A1CF833018
S1130920910591F480914A0290914B0201968A308C
S1130930910529F090934B0280934A0291CF109233
S11309404B0210924A028CCF8430910591F480912D
S113095044029091450201968630910529F09093C6
S11309604502809344027CCF1092450210924402C7
S113097077CF059709F074CF809146029091470292
S113098001968A30910529F090934702809346029C
S113099067CF109247021092460262CF0E381105BB
S11309A009F05ECF809120029091210201969093EC
S11309B021028093200206970CF452CF1092210258
S11309C010922002DD24D39404E212E07EDB7C0149
S11309D04CEC51E060E080E058DD8EE8E816F1046C
S11309E019F4D092230211C09EE1E916F10469F4CE
S11309F081E08093230280932202DD24DA946894B8
S1130A00CC24C5F804E212E036C0809147028F93EB
S1130A10809146028F93809145028F938091440286
S1130A208F9380914B028F9380914A028F93809190
S1130A3049028F93809148028F9380914F028F9344
S1130A4080914E028F9380914D028F9380914C023E
S1130A508F937F926F921F930F93EBD2A8016D2D0A
S1130A6080E013DD8DB79EB740960FB6F8949EBF15
S1130A700FBE8DBFABCF29DB7C01E4B1F5B1CF0153
S1130A80B101A1D29B01CF016AE070E09CD2211593
S1130A90310579F0D2BA1216130664F440E050E03E
S1130AA082B3880F82BB4F5F5F4F24173507C1F7AE
S1130AB001C0D2BA8091520290915302681779070B
S1130AC010F0C8BA01C0D8BAE93E93E0F90734F08F
S1130AD0CF0168EE73E077D2E81BF90BCF0164E134
S1130AE070E071D260931E0270931F027F936F9324
S1130AF05F924F92DF93CF939CD2AE0160E080E08F
S1130B00C4DC809147028F93809146028F93809139
S1130B1045028F93809144028F9380914B028F936F
S1130B2080914A028F93809149028F938091480269
S1130B308F9380914F028F9380914E028F93809177
S1130B404D028F9380914C028F937F926F921F93EB
S1130B500F936FD2A80161E080E097DC8DB79EB758
S1130B6046960FB6F8949EBF0FBE8DBF9EE2E9165F
S1130B70F10409F080CF10922302109222028FEF29
S1130B8088BB0F2EFCE39F2EF02D0F2EF0EFEF2EDF
S1130B90F1E0FF2EF02D0F2EF7E0AF2EF2E0BF2E86
S1130BA0F02D04E212E091DA6C01209150023091B0
S1130BB05102369527953695279536952795A5ECB8
S1130BC0B0E214D2FC01F295E295EF70EF27FF70CA
S1130BD0EF279F01A9E8B8E809D2AC0156954795DB
S1130BE0529542954F7045275F704527949EC001EA
S1130BF0959E900D1124AF01481B590B9A01F6D113
S1130C00FC01F695E795F295E295EF70EF27FF70FA
S1130C10EF279F01EBD19C013695279532952295BC
S1130C202F7023273F702327929EC001939E900D1F
S1130C3011249F01281B390B5F934F933F932F93EC
S1130C40D5D1AC0156954795529542954F7045279D
S1130C505F7045279A01ABEABAEAC8D192958295AA
S1130C608F7089279F7089279C01220F331F820F61
S1130C70931F880F991F880F991F880F991F481B6E
S1130C80590B5F934F93FF92EF92DF93CF93D1D1A0
S1130C90AE0160E080E0F9DB20E030E04AE754E4B4
S1130CA060911A0270911B0280911C0290911D02A6
S1130CB0A0D007D17F936F93BF92AF921F930F93EE
S1130CC0B8D1A80161E080E0E0DB8DB79EB7409623
S1130CD00FB6F8949EBF0FBE8DBF9EE8C916D1040F
S1130CE009F061CF109257021092560210924702F7
S1130CF010924602109245021092440210924B0246
S1130D0010924A02109249021092480210924F0225
S1130D1010924E0210924D0210924C02A1CD90936B
S1130D204D0280934C029CCD5058BB27AA270ED06D
S1130D3010C101D130F006D120F031F49F3F11F4FD
S1130D401EF4F6C00EF4E095E7FBECC0E92F12D1D7
S1130D5080F3BA17620773078407950718F071F4D4
S1130D609EF52AC10EF4E0950B2EBA2FA02D0B018F
S1130D70B90190010C01CA01A0011124FF27591BDC
S1130D8099F0593F50F4503E68F11A16F040A22FE2
S1130D90232F342F4427585FF3CF46953795279553
S1130DA0A795F0405395C9F77EF41F16BA0B620B52
S1130DB0730B840BBAF09150A1F0FF0FBB1F661F99
S1130DC0771F881FC2F70EC0BA0F621F731F841FDC
S1130DD048F4879577956795B795F7959E3F08F002
S1130DE0B3CF9395880F08F09927EE0F97958795C1
S1130DF008950CD0AEC0A6D040F09DD030F021F4C0
S1130E005F3F19F08FC05111D8C092C0B3D098F38E
S1130E109923C9F35523B1F3951B550BBB27AA2777
S1130E2062177307840738F09F5F5F4F220F331FE9
S1130E30441FAA1FA9F333D00E2E3AF0E0E830D0B5
S1130E4091505040E695001CCAF729D0FE2F27D0B8
S1130E50660F771F881FBB1F261737074807AB0786
S1130E60B0E809F0BB0B802DBF01FF2793585F4FFB
S1130E702AF09E3F510568F055C09FC05F3FECF3D8
S1130E80983EDCF3869577956795B795F7959F5FC0
S1130E90C9F7880F911D9695879597F90895E1E014
S1130EA0660F771F881FBB1F621773078407BA0773
S1130EB020F0621B730B840BBA0BEE1F88F7E095CE
S1130EC0089504D06894B11178C008955BD088F077
S1130ED09F5790F0B92F9927B751A0F0D1F0660F22
S1130EE0771F881F991F1AF0BA95C9F712C0B1303D
S1130EF081F062D0B1E008955FC0672F782F882712
S1130F00B85F39F0B93FCCF3869577956795B3957B
S1130F10D9F73EF490958095709561957F4F8F4FEA
S1130F209F4F089597F99F6780E870E060E0089507
S1130F309FEF80EC089500240A94161617061806ED
S1130F400906089500240A941216130614060506C9
S1130F500895092E0394000C11F4882352F0BB0F5A
S1130F6040F4BF2B11F460FF04C06F5F7F4F8F4FBD
S1130F709F4F089557FD9058440F551F59F05F3FF8
S1130F8071F04795880F97FB991F61F09F3F79F0A7
S1130F9087950895121613061406551FF2CF469529
S1130FA0F1DF08C0161617061806991FF1CF8695AB
S1130FB07105610508940895E894BB27662777278F
S1130FC0CB0197F9089597FB072E16F4009406D0E9
S1130FD077FD08D01AD007FC05D03EF49095819592
S1130FE09F4F0895709561957F4F0895A29FB0011A
S1130FF0B39FC001A39F700D811D1124911DB29F49
S1131000700D811D1124911D0895AA1BBB1B51E174
S113101007C0AA1FBB1FA617B70710F0A61BB70B64
S1131020881F991F5A95A9F780959095BC01CD0109
S113103008950F931F93CF93DF93CDB7DEB72E9709
S11310400FB6F894DEBF0FBECDBF0D891E8986E0B2
S11310508C831A8309838FEF9FE79E838D83AE0170
S1131060475E5F4F6F89788DCE01019610D0EF8176
S1131070F885E00FF11F10822E960FB6F894DEBFAC
S11310800FBECDBFDF91CF911F910F9108952F9285
S11310903F924F925F926F927F928F929F92AF9204
S11310A0BF92CF92DF92EF92FF920F931F93CF9351
S11310B0DF93CDB7DEB72B970FB6F894DEBF0FBE24
S11310C0CDBF6C017B018A01FC01178216828381EA
S11310D081FFBFC1CE0101963C01F6019381F70166
S11310E093FD859193FF81917F01882309F4ADC11C
S11310F0853239F493FD859193FF81917F01853287
S113110021F4B60190E0D6D1E8CF912C212C312CDA
S1131110FFE1F315D8F08B3279F038F4803279F0AE
S11311208332A1F4232D20611DC08D3261F0803300
S113113069F4232D216016C0832D8260382EE32D9F
S1131140E4603E2E2AC0F32DF8601DC037FC2DC08C
S113115020ED280F2A3040F08E32B9F436FC75C1E8
S1131160232D2064322E19C036FE06C08AE0989ED4
S1131170200D1124922E11C0EAE02E9E200D112480
S1131180222EF32DF0623F2E08C08C3621F4832DDD
S11311908068382E02C0883641F4F70193FD8591AA
S11311A093FF81917F018111B3CF982F9F7D955437
S11311B0933028F40C5F1F4F9FE399830DC083364F
S11311C031F0833771F0833509F055C020C0F80140
S11311D0808189830E5F1F4F88248394912C53014F
S11311E012C02801F2E04F0E511CF801A080B1801A
S11311F036FE03C0692D70E002C06FEF7FEFC501BA
S11312004ED14C018201F32DFF773F2E15C02801EA
S113121022E0420E511CF801A080B18036FE03C0CA
S1131220692D70E002C06FEF7FEFC5012DD14C0135
S1131230F32DF0683F2E820133FC19C0822D90E01B
S113124088169906A0F4B60180E290E033D12A947E
S1131250F5CFF50137FC859137FE81915F01B60129
S113126090E028D121102A9421E0821A9108811457
S1131270910479F7E1C0843611F0893639F5F80123
S113128037FE07C060817181828193810C5F1F4F9B
S113129008C060817181072E000C880B990B0E5FCA
S11312A01F4FF32DFF763F2E97FF09C09095809531
S11312B0709561957F4F8F4F9F4FF0683F2E2AE0C6
S11312C030E0A30133D1882E861844C0853731F429
S11312D0232D2F7EB22E2AE030E025C0932D997F56
S11312E0B92E8F36C1F018F4883579F0AEC0803746
S11312F019F0883721F0A9C0E92FE061BE2EB4FEB1
S11313000DC0FB2DF460BF2E09C034FE0AC0292F86
S11313102660B22E06C028E030E005C020E130E0AF
S113132002C020E132E0F801B7FE07C0608171819C
S1131330828193810C5F1F4F06C06081718180E0C0
S113134090E00E5F1F4FA301F1D0882E8618FB2D6D
S1131350FF773F2E36FE0DC0232D2E7FA22E89143B
S113136058F434FE0BC032FC09C0832D8E7EA82EA7
S113137005C0B82CA32C03C0B82C01C0B92CA4FE02
S11313800FC0FE01E80DF11D8081803321F49A2DF8
S1131390997EA92E09C0A2FE06C0B394B39404C0DA
S11313A08A2D867809F0B394A3FC10C0A0FE06C071
S11313B0B21480F4280C922C9B180DC0B21458F46B
S11313C0B60180E290E076D0B394F8CFB21418F46A
S11313D02B1802C0982C212CA4FE0FC0B60180E368
S11313E090E068D0A2FE16C0A1FC03C088E790E09C
S11313F002C088E590E0B6010CC08A2D867851F0D1
S1131400A1FE02C08BE201C080E2A7FC8DE2B6011E
S113141090E050D0891430F4B60180E390E04AD0D3
S11314209A94F8CF8A94F301E80DF11D8081B601F6
S113143090E040D08110F6CF222009F44ECEB601C0
S113144080E290E037D02A94F7CFF6018681978125
S113145002C08FEF9FEF2B960FB6F894DEBF0FBE3E
S1131460CDBFDF91CF911F910F91FF90EF90DF904F
S1131470CF90BF90AF909F908F907F906F905F9030
S11314804F903F902F900895FC010590615070405B
S11314900110D8F7809590958E0F9F1F0895FC0139
S11314A06150704001900110D8F7809590958E0F8F
S11314B09F1F08950F931F93CF93DF93FB01238105
S11314C021FD03C08FEF9FEF2CC022FF16C0468181
S11314D05781248135814217530744F4A081B18197
S11314E09D012F5F3F4F318320838C932681378169
S11314F02F5F3F4F3783268314C08B01EC01FB0120
S11315000084F185E02D0995892BE1F6D801169622
S11315108D919C911797019617969C938E9316978D
S1131520CE01DF91CF911F910F910895FA01AA275F
S1131530283051F1203181F1E8946F936E7F6E5F12
S11315407F4F8F4F9F4FAF4FB1E03ED0B4E03CD0C0
S1131550670F781F891F9A1FA11D680F791F8A1FA3
S1131560911DA11D6A0F711D811D911DA11D20D00A
S113157009F468943F912AE0269F11243019305DC4
S11315803193DEF6CF010895462F4770405D4193B5
S1131590B3E00FD0C9F7F6CF462F4F70405D4A3302
S11315A018F0495D31FD4052419302D0A9F7EACFCA
S11315B0B4E0A6959795879577956795BA95C9F7F9
S11315C000976105710508959B01AC010A2E0694EC
S11315D05795479537952795BA95C9F7620F731FA5
S10F15E0841F951FA01D0895F894FFCFF0
S11315EC0120202020256425643A256425643A25AD
S11315FC6425642020202000202020205F25643ACC
S113160C256425643A2564256420202020002020AC
S113161C202025645F3A256425643A2564256420DA
S113162C2020200020202020256425643A5F256496
S113163C3A256425642020202000202020202564C5
S113164C25643A25645F3A25642564202020200013
S113165C20202020256425643A256425643A5F25DE
S113166C64202020200020202020256425643A2595
S113167C6425643A25645F202020200020204865DE
S113168C616C7468204361726500202042696B654B
S113169C2053797374656D2E2E2E00203C54696D85
S11316AC652053657474696E673E2000202048657C
S11316BC616C746820436172652020200056656C4F
S11316CC6F636974793A20253032644B6D2F48006E
S11316DC54696D6520202020253032643A2530323F
S11316EC643A253032640043616C6F726965202062
S10D16FC202025644B63616C00009C
S9030000FC
